:100000000C9434000C9467000C9467000C94670007
:100010000C9467000C9467000C9467000C946700C4
:100020000C9467000C9467000C9467000C946700B4
:100030000C9467000C9467000C9467000C946700A4
:100040000C9467000C9467000C9467000C94670094
:100050000C9467000C9467000C9467000C94670084
:100060000C9467000C94670011241FBECFEFD8E0FA
:10007000DEBFCDBF0E9440000C943E00F894FFCF3D
:10008000ECE7F0E0808180648083EAE7F0E0808143
:10009000876080838081806880838CEF8AB98BB190
:1000A00084608BB9EAE7F0E080818064808380918E
:1000B0007A0086FDFCCF809178009091790096952A
:0E00C0008795969587958C7F99278BB9EBCF06
:0400CE000C9400008E
:00000001FF
