:100000000C9434000C949B000C949B000C949B006B
:100010000C949B000C949B000C949B000C949B00F4
:100020000C949B000C949B000C949B000C949B00E4
:100030000C949B000C949B000C949B000C949B00D4
:100040000C949B000C949B000C949B000C949B00C4
:100050000C949B000C949B000C949B000C949B00B4
:100060000C949B000C949B0011241FBECFEFD8E092
:10007000DEBFCDBF0E9463000C943E00F894FFCF1A
:0F00800048656C6C6F20576F726C64210D0A001D
:10009000CF92DF92EF92CF936B01E82EC0E003C0C6
:1000A0000E948D00CF5FAE2DC6018C0F911DA11D4A
:1000B000FC018491A7FD80818111F2CFCF91EF9057
:0600C000DF90CF900895CF
:1000C6008FEF84B90E947C0060E870E080E00E94B7
:1000D60048000E949400C82F0E948D00C5B92FEFDA
:1000E60089E698E1215080409040E1F700C0000089
:0200F600F0CF49
:1000F8001092C50087E68093C400E0ECF0E08081B0
:100108008D7F808388E18093C10086E08093C20060
:02011800089548
:0E011A009091C00095FFFCCF8093C600089521
:0E0128008091C0008823E4F78091C6000895FE
:040136000C94000025
:00000001FF
