:100000000C943A000C9451010C9451010C94510140
:100010000C9451010C9451010C9451010C94510118
:100020000C9451010C9451010C9451010C94510108
:100030000C9451010C9451010C9451010C945101F8
:100040000C9464000C9451010C9451010C945101D6
:100050000C9451010C9451010C9451010C945101D8
:100060000C9451010C945101010001020002A601FF
:100070000201038011241FBECFEFD8E0DEBFCDBF49
:10008000E8E6F0E040E017C0B591A59135912591E3
:10009000059107FD0CC095918591EF01F92FE82F8F
:1000A00005900D92A217B307D9F7FE0104C01D9267
:1000B000A217B307E1F7E437F40731F70E94130101
:0800C0000C946200F894FFCFDC
:1000C8001F920F920FB60F9211248F939F938091D6
:1000D8000201882319F0813089F01DC08091000148
:1000E80090910101019690930101809300018F3F47
:1000F800910589F481E0809302010DC0809100018F
:100108009091010101979093010180930001892B3F
:1001180011F41092020180910001909101018091E7
:100128000001909101018134910570F485B18860D6
:1001380085B98FE090E09093870080938600909334
:100148008B0080938A0064C0809100019091010126
:1001580081349105A8F080910001909101018238C5
:10016800910570F485B1877F85B98FEF90E0909302
:1001780087008093860090938B0080938A0048C004
:10018800809100019091010182389105A8F0809139
:10019800000190910101833C910570F485B188605C
:1001A80085B98FEF9FE090938700809386009093A6
:1001B8008B0080938A002CC08091000190910101EE
:1001C800833C9105A8F080910001909101018F3F37
:1001D800910570F485B1877F85B98FEF9FEF909374
:1001E80087008093860090938B0080938A0010C0CC
:1001F800809100019091010180910001909101018D
:100208008F3F910529F020F0109201011092000112
:0E0218009F918F910F900FBE0F901F90189521
:100226008EE084B915B88FEF9FEF90938700809387
:1002360086008FEF90E090938900809388008FEF7F
:100246009FEB90938B0080938A00E0E8F0E080813A
:10025600806A8083808182608083E1E8F0E080812B
:100266008861808380818160808378940E944301C5
:1002760083B7816083BF889583B78E7F83BFF8CFAE
:1002860082E084BD8FEF87BDEEE6F0E0808181607D
:0C029600808316BC85E085BD7894089537
:0402A2000C940000B8
:0202A600050051
:00000001FF
